:0400000500000A816C
:020000040000FA
:1000000000040020810A000015070000610A0000BA
:100010001F07000029070000330700000000000050
:10002000000000000000000000000000A50A000021
:100030003D070000000000004707000051070000D6
:100040005B070000650700006F07000079070000EC
:10005000830700008D07000097070000A10700003C
:10006000AB070000B5070000BF070000C90700008C
:10007000D3070000DD070000E7070000F1070000DC
:10008000FB070000050800000F0800001908000029
:10009000230800002D080000370800004108000078
:1000A0004B080000550800005F08000069080000C8
:1000B000730800007D080000870800009108000018
:1000C0009B080000A5080000AF080000B908000068
:1000D000C3080000CD080000D7080000E1080000B8
:1000E000EB080000F5080000FF0800000909000007
:1000F000130900001D090000270900003109000054
:100100003B0900001FB500F003F88DE80F001FBD8C
:1001100000F0ACBC40F6FC7108684FF01022401CA7
:1001200008D00868401C09D00868401C04D0086842
:1001300000F037BA9069F5E79069F9E7704770B554
:100140000B46010B184400F6FF70040B4FF0805073
:100150000022090303692403406943431D1B104621
:1001600000F048FA29462046BDE8704000F042BA47
:10017000F0B54FF6FF734FF4B4751A466E1E11E0DA
:10018000A94201D3344600E00C46091B30F8027B3B
:10019000641E3B441A44F9D19CB204EB134394B25D
:1001A00004EB12420029EBD198B200EB134002EBB2
:1001B000124140EA0140F0BDF34992B00446D1E952
:1001C0000001CDE91001FF224021684600F0F4FB58
:1001D00094E80F008DE80F00684610A902E004C8FB
:1001E00041F8042D8842FAD110216846FFF7C0FF7C
:1001F0001090AA208DF8440000F099F9FFF78AFFCB
:1002000040F6FC7420684FF01025401C0FD0206889
:1002100010226946803000F078F92068401C08D030
:100220002068082210A900F070F900F061F9A869AF
:10023000EEE7A869F5E74FF080500369406940F6A2
:10024000FC71434308684FF01022401C06D0086838
:1002500000F58050834203D2092070479069F7E788
:100260000868401C04D00868401C03D00020704778
:100270009069F9E70420704770B504460068C34DE3
:10028000072876D2DFE800F033041929631E250021
:10029000D4E9026564682946304600F062F92A46CE
:1002A0002146304600F031F9AA002146304600F0E0
:1002B00057FB002800D0032070BD00F009FC4FF46C
:1002C000805007E0201D00F040F90028F4D100F034
:1002D000FFFB60682860002070BD241D94E80700C3
:1002E000920000F03DFB0028F6D00E2070BDFFF715
:1002F000A2FF0028FAD1D4E901034FF0805100EBAE
:10030000830208694D69684382420ED840F6F8704E
:1003100005684FF010226D1C09D0056805EB8305B8
:100320000B6949694B439D4203D9092070BD55694A
:10033000F4E70168491C03D00068401C02D003E0C8
:100340005069FAE70F2070BD2046FFF735FFFFF731
:1003500072FF0028F7D1201D00F0F7F80028F2D135
:1003600060680028F0D100F0E2F8FFF7D3FE00F05B
:10037000BFF8072070BD10B50C46182802D0012028
:10038000086010BD2068FFF777FF206010BD41684E
:10039000054609B1012700E0002740F6F8742068FF
:1003A0004FF01026401C2BD02068AA68920000F065
:1003B000D7FA38B3A86881002068401C27D020688D
:1003C000FFF7BDFED7B12068401C22D026684FF051
:1003D0008050AC686D68016942695143A9420DD9EA
:1003E000016940694143A14208D92146304600F0E5
:1003F000B8F822462946304600F087F800F078F831
:100400007069D2E700F093F8FFF784FEF6E77069B1
:10041000D6E77669DBE740F6FC7420684FF01026DB
:10042000401C23D02068401C0CD02068401C1FD0EA
:100430002568206805F18005401C1BD027683879A5
:10044000AA2819D040F6F8700168491C42D001680A
:10045000491C45D00168491C3ED001680968491C07
:100460003ED00168491C39D000683EE0B069DAE747
:10047000B569DEE7B769E2E710212846FFF778FEA5
:100480003968814222D12068401C05D0D4F8001080
:1004900001F18002C03107E0B169F9E730B108CA63
:1004A00051F8040D984201D1012000E000208A4259
:1004B000F4D158B1286810B1042803D0FEE72846CB
:1004C000FFF765FF3149686808600EE0FFF722FE1C
:1004D00000F00EF87169BBE77169BFE7706904E06D
:1004E0004FF480500168491C01D000F0CBFAFEE7C0
:1004F000BFF34F8F26480168264A01F4E06111439B
:100500000160BFF34F8F00BFFDE72DE9F0411746B3
:100510000D460646002406E03046296800F054F8EF
:10052000641C2D1D361DBC42F6D3BDE8F08140F69B
:10053000FC700168491C04D0D0F800004FF48051D1
:10054000FDE54FF010208069F8E74FF080510A690F
:10055000496900684A43824201D810207047002050
:10056000704770B50C4605464FF4806608E0284693
:1005700000F017F8B44205D3A4F5806405F5805562
:10058000002CF4D170BD0000F40A0000000000202F
:100590000CED00E00400FA05144801680029FCD0C5
:1005A0007047134A0221116010490B68002BFCD0E0
:1005B0000F4B1B1D186008680028FCD0002010603D
:1005C00008680028FCD07047094B10B501221A605A
:1005D000064A1468002CFCD0016010680028FCD08A
:1005E0000020186010680028FCD010BD00E4014015
:1005F00004E5014070B50C46054600F073F810B9EB
:1006000000F07EF828B121462846BDE8704000F091
:1006100007B821462846BDE8704000F037B8000012
:100620007FB5002200920192029203920A0B000B06
:100630006946012302440AE0440900F01F0651F80C
:10064000245003FA06F6354341F82450401C8242F8
:10065000F2D80D490868009A10430860081D016827
:10066000019A1143016000F03DF800280AD00649C4
:1006700010310868029A10430860091D0868039A3F
:10068000104308607FBD00000006004030B50F4CED
:10069000002200BF04EB0213D3F800582DB9D3F8A1
:1006A000045815B9D3F808581DB1521C082AF1D3C3
:1006B00030BD082AFCD204EB0212C2F80008C3F8CD
:1006C00004180220C3F8080830BD000000E0014013
:1006D0004FF08050D0F83001082801D0002070473A
:1006E000012070474FF08050D0F83011062905D016
:1006F000D0F83001401C01D0002070470120704725
:100700004FF08050D0F830010A2801D00020704707
:100710000120704708208F490968095808471020B0
:100720008C4909680958084714208A4909680958FA
:100730000847182087490968095808473020854923
:100740000968095808473820824909680958084744
:100750003C20804909680958084740207D490968BC
:100760000958084744207B49096809580847482028
:1007700078490968095808474C207649096809589A
:10078000084750207349096809580847542071499F
:1007900009680958084758206E49096809580847E8
:1007A0005C206C4909680958084760206949096854
:1007B00009580847642067490968095808476820AC
:1007C00064490968095808476C2062490968095852
:1007D000084770205F4909680958084774205D4937
:1007E00009680958084778205A490968095808478C
:1007F0007C205849096809580847802055490968EC
:10080000095808478420534909680958084788202F
:1008100050490968095808478C204E490968095809
:10082000084790204B4909680958084794204949CE
:10083000096809580847982046490968095808472F
:100840009C204449096809580847A0204149096883
:1008500009580847A4203F49096809580847A820B3
:100860003C49096809580847AC203A4909680958C1
:100870000847B0203749096809580847B420354966
:10088000096809580847B8203249096809580847D3
:10089000BC203049096809580847C0202D4909681B
:1008A00009580847C4202B49096809580847C82037
:1008B0002849096809580847CC2026490968095879
:1008C0000847D0202349096809580847D4202149FE
:1008D000096809580847D8201E4909680958084777
:1008E000DC201C49096809580847E02019490968B3
:1008F00009580847E4201749096809580847E820BB
:100900001449096809580847EC2012490968095830
:100910000847F0200F49096809580847F4200D4995
:10092000096809580847F8200A490968095808471A
:10093000FC2008490968095808475FF48070054998
:10094000096809580847000003480449024A034B54
:100950007047000000000020000B0000000B0000AA
:1009600040EA010310B59B070FD1042A0DD310C82C
:1009700008C9121F9C42F8D020BA19BA884201D97E
:10098000012010BD4FF0FF3010BD1AB1D30703D0C6
:10099000521C07E0002010BD10F8013B11F8014B7C
:1009A0001B1B07D110F8013B11F8014B1B1B01D198
:1009B000921EF1D1184610BD02F0FF0343EA032254
:1009C00042EA024200F005B87047704770474FF0A6
:1009D00000020429C0F0128010F0030C00F01B800C
:1009E000CCF1040CBCF1020F18BF00F8012BA8BF1A
:1009F00020F8022BA1EB0C0100F00DB85FEAC17CDE
:100A000024BF00F8012B00F8012B48BF00F8012B90
:100A100070474FF0000200B51346944696462039C1
:100A200022BFA0E80C50A0E80C50B1F12001BFF4A7
:100A3000F7AF090728BFA0E80C5048BF0CC05DF80D
:100A400004EB890028BF40F8042B08BF704748BF5B
:100A500020F8022B11F0804F18BF00F8012B7047CF
:100A6000014B1B68DB6818470000002009480A4951
:100A70007047FFF7FBFFFFF745FB00BD20BFFDE719
:100A8000064B1847064A1060016881F308884068E1
:100A900000470000000B0000000B000017040000DE
:100AA000000000201EF0040F0CBFEFF30881EFF3ED
:100AB0000981886902380078182803D100E0000015
:100AC000074A1047074A12682C3212681047000084
:100AD00000B5054B1B68054A9B58984700BD0000B0
:100AE0007703000000000020F00A0000040000006E
:100AF000001000000000000000FFFFFF0090D00386
:02000004000FEB
:104000000000042061A90F0089A90F008BA90F00EF
:104010008DA90F008FA90F0091A90F0000000000CB
:1040200000000000000000000000000009460F0032
:1040300095A90F000000000097A90F00294E0F005E
:10404000454F0F009BA90F009BA90F009BA90F00D4
:104050009BA90F009BA90F009BA90F009BA90F0014
:104060009BA90F009BA90F009BA90F009BA90F0004
:104070009BA90F009BA90F009BA90F009BA90F00F4
:104080009BA90F0031740F009BA90F009BA90F0083
:10409000ED740F009BA90F00B94B0F009BA90F00F7
:1040A0009BA90F009BA90F009BA90F009BA90F00C4
:1040B0009BA90F009BA90F0000000000000000005A
:1040C0009BA90F009BA90F009BA90F009BA90F00A4
:1040D0009BA90F009BA90F009BA90F0089850F00CA
:1040E0009BA90F009BA90F009BA90F0000000000D7
:1040F000000000009BA90F00000000009BA90F001A
:1041000000000000000000000000000000000000AF
:10411000000000000000000000000000000000009F
:10412000000000000000000000000000000000008F
:10413000000000000000000000000000000000007F
:10414000000000000000000000000000000000006F
:10415000000000000000000000000000000000005F
:10416000000000000000000000000000000000004F
:10417000000000000000000000000000000000003F
:10418000000000000000000000000000000000002F
:10419000000000000000000000000000000000001F
:1041A000000000000000000000000000000000000F
:1041B00000000000000000000000000000000000FF
:1041C00000000000000000000000000000000000EF
:1041D00000000000000000000000000000000000DF
:1041E00000000000000000000000000000000000CF
:1041F00000000000000000000000000000000000BF
:1042000010B5054C237833B9044B13B10448AFF310
:1042100000800123237010BD1C86002000000000D8
:10422000C4B80F0008B5034B1BB103490348AFF3F3
:10423000008008BD0000000020860020C4B80F00E8
:10424000154B002B08BF134B9D46A3F5803A002168
:104250008B460F461348144A121A00F05FF80F4BB2
:10426000002B00D098470E4B002B00D09847002021
:10427000002104000D000D48002802D00C4800F079
:1042800015F900F027F82000290000F0BDFA00F031
:1042900011F800BF0000080000000420000000002A
:1042A000000000001C8600201CCE0020AD440F0042
:1042B000B9440F0008B50021044600F083F8044B10
:1042C0001868C36B03B19847204600F073F900BF2C
:1042D000D4B50F0070B50D4E0D4D761BB61006D03F
:1042E0000024013455F8043B9847A642F9D1094E01
:1042F000094D761B07F062F9B61006D00024013490
:1043000055F8043B9847A642F9D170BD10860020AD
:10431000108600201886002010860020F0B4860742
:1043200043D0541E002A3ED0CAB2034602E014F124
:10433000FF3438D303F8012B9D07F8D1032C2BD978
:10434000CDB245EA05250F2C45EA054516D9A4F15D
:1043500010073F0903F1200606EB071603F11002D0
:1043600042E9045542E902551032B242F8D104F054
:104370000F040137032C03EB07130DD91E46224609
:10438000043A032A46F8045BFAD8221F22F00302FB
:104390000432134404F003042CB1C9B21C4403F8E2
:1043A000011B9C42FBD1F0BC704714460346C5E795
:1043B000024B13B1024800F079B8704700000000CA
:1043C000B9440F002DE9F04F354B85B00F460390EF
:1043D000186800F08BF8334B1B68019303F5A47346
:1043E0000293B946019BD3F848613EB3DDF808A0BB
:1043F0004FF001087468651E0FD4013406EB840485
:104400000027B9F1000F20D0D4F800314B451CD063
:10441000013D6B1CA4F10404F3D1234B73B1D6E925
:104420000032002A34D1002B32D03046CAF8003096
:10443000AFF30080DAF80060002EDBD1184B18686B
:1044400005B0BDE8F04F00F053B873682268013B37
:10445000AB420CBF75602760002AD9D0D6F888110E
:10446000D6F804B008FA05F30B4208D190477368F8
:104470005B45B7D1DAF80030B342C9D0B2E7D6F81D
:104480008C01D4F88010034207D103989047EEE7DF
:10449000B2461E46002EADD1D0E708469047E6E76B
:1044A00030840020D4B50F00000000000023014636
:1044B0001A46184600F01EB838B50A4C0A4D641B5F
:1044C000A4100AD004F18043013B05EB8305013CB5
:1044D00055F804399847002CF9D1BDE8384007F069
:1044E00073B800BF1C86002018860020704700BFEC
:1044F000704700BF2DE9F8432B4D064628689846C3
:104500000F469146FFF7F2FF284B1C68D4F848315C
:10451000002B3DD05A681F2A0DDC02F1010C16BB9E
:104520000232C3F804C0286843F82270FFF7E0FFA6
:104530000020BDE8F8831E4B7BB34FF4C870AFF387
:104540000080034648B3D4F848210021C0E9002187
:104550004FF0010CC4F848010A46C0F88811C0F8B1
:104560008C11002EDCD003EB82010124C1F888906D
:10457000D3F8880194402043022EC3F88801C1F883
:104580000881CDD1D3F88C110C43C3F88C41C7E717
:1045900004F5A673C4F84831BCE72868FFF7A8FF04
:1045A0004FF0FF30C5E700BF30840020D4B50F00C6
:1045B00000000000FEE700BF38B50C46F8B90968F6
:1045C000D9B1104A914215460CD0531A3B2B12D93F
:1045D0003C22284606F0F1F904E0C85CD05413F1FF
:1045E000FF33FAD200223C21064803F07BFA002375
:1045F000A887236038BD3D23F1E70E23F9E70123A7
:10460000F7E700BF807F00206FF00203064A9E4557
:1046100002D1EFF3098101E0EFF308818869A0F18D
:1046200002000078104700BFB9450F0038B50546B5
:10463000A8B10D4C00223C21204603F053FAA38F71
:1046400083420ED1224604F13C0152F8040B45F896
:10465000040B8A42F9D10133A387002038BD0E2014
:10466000FCE70B20FAE700BF807F00200B2970B524
:104670000446154630D90389053300EB4303014452
:10468000CA1AD2B2012A27D98B4225D81946134813
:1046900006F093F92388522B06D1AB0711D062881C
:1046A0004CF668639A420CD00F2014E034F8022BC9
:1046B000824204D02E88964203F1010308D10020E3
:1046C00009E0218900230A344FF6FE7043F20C05FD
:1046D0009942EBD80B2070BD0920FCE738860020FA
:1046E00008B5002203F0FEF9044A5178137843EA32
:1046F0000123984214BF0B20002008BD38860020FB
:1047000038B50C4C21684B1C054612D04FF4805232
:10471000094806F043F948B115B1206800F06EFC75
:104720004FF480620449206800F088FC4FF0FF33AA
:10473000236038BD34840020448600202DE9F041F8
:104740000F4E904620F47F64326824F00F04A2429A
:1047500005460F4609D01846FFF7D2FF4FF48052A6
:1047600021460848346006F028F90648C5F30B05D1
:10477000424639462844BDE8F04106F01EB900BF64
:104780003484002044860020BFF34F8F0549064B38
:10479000CA6802F4E0621343CB60BFF34F8F00BFDF
:1047A000FDE700BF00ED00E00400FA054BDF7047B5
:1047B00010DF704711DF704713DF704718DF704755
:1047C00060DF704769DF704761DF704708B5034BF2
:1047D0001B68DB0700D500BEFFF7D6FFF0ED00E059
:1047E000014B1878704700BF459600201FB5002385
:1047F00004A8CDE901330393022340F8103DFFF7ED
:10480000DDFF05B05DF804FB2DE9F04F4FF080436C
:1048100087B0D3F81C65D3F81C25A6F1B104D4F1F8
:10482000000848EB0408B12A74D0D3F81C45A4F161
:10483000A80044424441AD4D04F001032B704FF0F9
:104840008043D3F81C757CB94E2F0DD0D3F81C25AE
:10485000572A09D0A64A12681168A64A914209D17E
:10486000D3F80034D90705D54FF080430022C3F8B0
:104870001C250124A04B40F20232C3F8402500F071
:1048800025FA00F053FE002000F0D6FA00F0C8FE32
:1048900078B1052000F0D0FA00F0D4FE08B103F0A2
:1048A000D9F800F0F5FE08B103F0D4F8062000F0C6
:1048B000C3FA1CB92B2000F099F904462B785BBB96
:1048C0002B2000F093F910B12C2000F08FF900F0AC
:1048D0000100287000F064FDDFF840A2DFF840B26C
:1048E000814630B12CB9824B1B681A68834B9A42BF
:1048F00035D043F204031B68534509BF43F2080354
:104900004FF490531B6803F500731B685B4518D187
:10491000012424E001248EE70120D8E74C461EE064
:104920004FF480030B605FE0022000F085FAA7F1EE
:104930004E035842584103F02BFEADE003F078FEE1
:10494000B7E0002CE4D1B9F1000FE7D0684B694A19
:104950001B686B481A606B4B43F00103984743F2A6
:10496000040363491B680A68534509BF43F20803FF
:104970004FF490531B6803F500731B685B450CBF35
:104980005E4B00238B4613601CB9B9F1000F40F059
:1049900090802C78002CC7D0082000F04DFAB12E62
:1049A00001D0FFF723FF4FF47420FFF705FF08B194
:1049B00003F050F8544B55491868019001A8FFF7CF
:1049C000F7FE08B103F046F8514991F816335A0939
:1049D000EC231341DA0707D54E4B9A68002A9FD083
:1049E0001A6842F480021A600C224B4B0293002199
:1049F0000DEB0200FFF792FC40F20113029A0393C1
:104A000003A94020FFF7DEFE08B103F023F80C22D3
:104A100000210DEB0200FFF781FC9DF80C30029A9B
:104A200043F0010303A9A0208DF80C30FFF7CAFE64
:104A300008B103F00FF80C2200210DEB0200FFF784
:104A40006DFC01238DF80C30029AF72303A9232073
:104A5000ADF80E30FFF7B6FE08B102F0FBFF0C22F6
:104A600000210DEB0200FFF759FC01238DF80C30FB
:104A70008DF80E30029A062303A92020ADF81030DD
:104A8000FFF7A0FE08B102F0E5FF02A8FFF798FECD
:104A900008B102F0DFFFA0460021287800F05EFD9B
:104AA00008B102F0D7FF2B78002B3FF447AFFFF798
:104AB00081FE00F055F900F073FCA0B100F0B0FDEC
:104AC00088B943F204031B68534506D1B8F1000FBF
:104AD00001D1FFF78BFEFFF76DFEDBF800300022FF
:104AE0001A6000F06FFDFFF74FFE00BF45960020F3
:104AF00038840020D51A5A0000A000407E67E54E99
:104B00000048E801E0B50F00D8B50F00CD470F0011
:104B100000E100E04CCD002000800020DBE5B15139
:104B20007CB0EE8710B5FEB04FF4FA730DF10201C0
:104B300001A8ADF80230FFF747FE044640B9BDF8C2
:104B40000430102B07D0112B0CD001A801F028F84D
:104B500020467EB010BD054B01221A70072000F0E0
:104B60006BF9F2E7014B18700820F8E74496002033
:104B700013B501A8FFF71AFE044660B9019802F0C8
:104B8000FDFA019B0A2B09D0092B09D00B2B02D16E
:104B9000012004F09BFA204602B010BD2046F8E741
:104BA0000220F6E708B5FFF7BDFF0528FBD1FFF7A8
:104BB000DFFF0528F7D108BD0021024A084602F0B0
:104BC000B1BE00BFA54B0F001F2884BF00F01F001F
:104BD000044B054A98BF4FF0A04300F5E07043F83E
:104BE00020207047000300500C0003001F288ABFDC
:104BF000064B4FF0A04300F01F00D3F8103523FA06
:104C000000F0C04300F00100704700BF00030050F7
:104C100000234FF0FF328360C0F80035C0F86025F4
:104C2000C0F86425C0F86825C0F86C2540F2FF3252
:104C3000C0F80435C0F80825C0F80C35C0F81035A8
:104C4000C0F81435C0F82035C0F82435704700008E
:104C50001B4B00221F2930B5C3F800258BBF01F084
:104C60001F030B46174A4FF0A04203F5E0740325DB
:104C700042F82450012404FA03F3C2F8083500F581
:104C8000AC700F4B002243F82010FF21C3F804251D
:104C90000220C3F808150421C3F80C15C3F8100549
:104CA0000948C3F81425C3F82005C3F82415C3F830
:104CB0002825C3F82C25C3F80045C3F8102130BDC2
:104CC00000C00140000300503C9800204FF080439A
:104CD00010B501220024DA602B20C3F818459A6031
:104CE000FFF772FF2C20FFF76FFF154B4FF4C850F2
:104CF00043F00103984718212046FFF7A9FF114A06
:104D00001E21082002F0EAFD08B102F0A3FE02F025
:104D10004FFD0D490D4BE02081F823001B684FF437
:104D20007A72B3FBF2F3013BB3F1807F07D2084AFA
:104D30005360002381F8230093600723136010BDA4
:104D4000F0B50F004896002000ED00E03C84002004
:104D500010E000E00148FFF75BBF00BF00C001406A
:104D6000164B002110B51960FFF7F4FF144B154CDA
:104D70004FF40032C3F8802003F1C04303F53C53E5
:104D80004FF48032C3F84823C3F8082301225A6045
:104D90009A604FF080430220DA600B461F2B1A46C0
:104DA000C6BF03F01F0221464FF0A04102F5E0729A
:104DB0000133302B41F82200F0D110BD10E000E0AB
:104DC00000E100E000030050074B23F81010074BF0
:104DD00000221A6082B01B680193019B044B0122E0
:104DE0001A6002B0704700BF3C98002010C101401B
:104DF00008C001400A4B1A680A4B1968B1FBF2F36C
:104E0000500802FB131383424FF04F0188BFD31A9F
:104E10004B43B3FBF0F1002089B2FFF7D5BF00BFD1
:104E20004498002038980020024A13680133136028
:104E3000FFF7E0BF389800201B4A1168082823D8E4
:104E4000DFE800F013051322221A1E242A00174B54
:104E500040F6B83018604FF47F4303F0103323F06E
:104E60008053994218BF13607047104B4FF49670EF
:104E700018604FF47F03F0E70C4B64221A60704710
:104E80000A4B40F6B83018600B46E6E7074B40F691
:104E9000B8301860FF23E0E7044B4FF496701860B9
:104EA0004FF0FF13D9E700BF489800204498002036
:104EB00000F1804382B01A68002A14BF012000204C
:104EC00004D000221A601B680193019B02B0704756
:104ED0000F4B1A78D2B902784FF08041C2F34002EA
:104EE000C1F88025027802F00102C1F87825094A4C
:104EF0001168C90706D4E02182F800130121C2F825
:104F00008011116001221A700348704703487047EE
:104F100049CD002000E100E00000AD0B0C00AD0B1E
:104F2000034B00221A60026802B11A60704700BF8A
:104F3000549800204FF080434FF46072C3F804236C
:104F40007047000010B54FF08043D3F80443620768
:104F500007D54FF48470FFF7ABFF10B11E4B1B68F1
:104F60009847A30608D54FF48A70FFF7A1FF18B140
:104F70001A4B00201B689847600608D54FF48C70C8
:104F8000FFF796FF18B1154B01201B6898472106C3
:104F900008D54FF48E70FFF78BFF18B1104B00202F
:104FA0001B689847E20508D54FF49070FFF780FF23
:104FB00018B10B4B01201B689847A3050AD54FF485
:104FC0009270FFF775FF28B1054B02201B68BDE802
:104FD0001040184710BD00BF4C980020509800208A
:104FE00054980020044AD2F80034DB07FBD5016056
:104FF000BFF35F8F704700BF00E001404FF0805368
:105000001A69B0FBF2F302FB130373B9084B0222D7
:10501000C3F80425C3F80805D3F80024D207FBD54C
:105020000022C3F80425034870470348704700BFB7
:1050300000E001400000AD0B0A00AD0B0A4B70B55B
:105040000124C3F8044501EB82050C46461AAC4224
:1050500004D1054B0022C3F8042570BD301954F863
:10506000041BFFF7BFFFF2E700E00140BFF34F8FE3
:105070000549064BCA6802F4E0621343CB60BFF3F4
:105080004F8F00BFFDE700BF00ED00E00400FA0510
:10509000034B1868A0F1080358425841704700BFFD
:1050A00030010010064B1B68082B06D1054B1B680E
:1050B000032B02D8044AD05C70470020704700BF21
:1050C0003001001034010010F6B50F0008B5FFF7ED
:1050D000DFFF40B14FF080430022C3F80C21C3F83A
:1050E0001021C3F83825FFF7D3FF002846D04FF032
:1050F0008052694BD2F80414C3F82015D2F8081472
:10510000C3F82415D2F80C14C3F82815D2F81014DB
:10511000C3F82C15D2F81414C3F83015D2F81814AB
:10512000C3F83415D2F81C14C3F84015D2F8201473
:10513000C3F84415D2F82414C3F84815D2F828143B
:10514000C3F84C15D2F82C14C3F85015D2F830140B
:10515000C3F85415D2F83414C3F86015D2F83814D3
:10516000C3F86415D2F83C14C3F86815D2F840149B
:10517000C3F86C15D2F84424C3F87025FFF792FFEA
:1051800010B1464B464A1A60FFF78CFF18B1454BE9
:10519000FB22C3F81825FFF785FF48B14249434B6E
:1051A0000A681B6822F00F0203F00F0313430B6021
:1051B000FFF778FF18B13E4B4FF400721A60FFF70B
:1051C00067FF48B14FF08043D3F80024D10744BFB4
:1051D0006FF00102C3F80024364AD2F8883043F455
:1051E0007003C2F88830BFF34F8FBFF36F8F4FF05B
:1051F0001023D3F80C22D2071ED52F4B0122C3F85F
:105200000425D3F80024002AFBD04FF01022D2F856
:105210000C3223F00103C2F80C32274B1A46D3F8A4
:1052200000140029FBD00021C3F80415D2F8003483
:10523000002BFBD0FFF71AFFD3F80022002A03DB74
:10524000D3F80432002B23DA1B4B0122C3F80425C8
:10525000D3F80024002AFBD04FF010221221C2F80C
:105260000012D3F80024002AFBD04FF010231222A2
:10527000C3F80422104B1A46D3F800140029FBD0BF
:105280000021C3F80415D2F80034002BFBD0D1E77D
:105290000A4B0B4A1A6008BD00C000408C56004003
:1052A0004881030000F00040E40E00405802001066
:1052B0004096024000ED00E000E001403C84002008
:1052C0000090D00313DF704718DF7047064B187843
:1052D000012803D1012904BF0221197012B110461F
:1052E00002F0B8BB704700BF8498002070B5124C24
:1052F000124D134ED4F800347BB1C4F80056C4F8F4
:105300000456C4F80856C4F80C56C4F81056C4F82D
:105310001456C4F81856C4F81C5602F069FB05F080
:1053200019FB20B104F0F6F9002004F0FDFD3378FC
:10533000023B022BDED870BD000001403546526EA4
:105340008498002008B5FFF74BFA88B11C2111485A
:1053500001F0B0FF08B102F07DFB00231C220E49D2
:105360000C4801F097FF98B1BDE8084002F072BB0D
:105370004FF47F20FFF742FE072207494FF47F20BA
:10538000FFF75CFE054B1A78012A04BF02221A704F
:1053900008BD00BF7C9800208898002084980020D9
:1053A00013B543F2040301A81A68124B9A420ABFCC
:1053B00043F208034FF480541C6800F097F9236807
:1053C000013302D16368013311D0019B1A88012A8D
:1053D0000DD1588820B100229968204602F082FB46
:1053E000019B5B881B1A5842584102B010BD002037
:1053F000FBE700BFDBE5B15184B02DE9F34108AC18
:1054000084E80F009DF82040BDF822800B9D01A884
:10541000DDE9097600F06AF954B9384B0122FF2121
:10542000A3F802809D601A809980354B1A7012E0B3
:10543000012C17D1314BBA192A449A60A5221A803F
:10544000FF229A800C9AA3F80280C3E903765D617B
:105450009A612B4B1C70FFF775FF02B0BDE8F0415D
:1054600004B07047032C0FD1019A244B1188198086
:10547000518892689A60C3E90376AA2259809A807B
:105480005D611F4B0122D1E7022C15D1019A1B4B04
:105490001188A5290AD100229A60FF221A60FF22F2
:1054A0009A800022C3E903225A61EAE719805188F1
:1054B000926859809A60F2E7052C0ED1FFF790F9B7
:1054C00040B100F047FD08B102F0C4FA0C4B0322D2
:1054D0001A70C2E700F000FAF5E7042C08D1074B78
:1054E00000229A60FF221A60019A92889A80B2E79D
:1054F000062CB2D1024B0422EAE700BF88980020B4
:105500008498002000B5084B1B7889B043B9052367
:105510008DF80C30079B009303AB0FCBFFF76CFFAC
:1055200009B05DF804FB00BF789800201FB5002388
:10553000CDE90233074B019301F074FE30B90649FF
:105540004FF47F2301A84B6001F090FE05B05DF899
:1055500004FB00BFCD520F007C98002070B50546BB
:105560000E4600F099FF044628B935B100F04EFC14
:105570000446FFF7BBFE204670BDBEB10D4B0E4A80
:105580000E481D70294602F043F94FF400444FF4D1
:10559000FA7000214FF47A720023E4FB060105F053
:1055A0007FFE2A460146064802F044F900F070F9F1
:1055B000DEE700BF7898002005550F00FCB50F000E
:1055C000589800201FB5144B4FF0FF32C3F88020CD
:1055D000C3F8802143F204031A68104B9A420FD19A
:1055E00043F208031B681846FFF76CFE10B14FF03A
:1055F00000521360184600F09DF805B05DF804FBFA
:105600000023CDE9023306224FF480536846CDE9EA
:105610000023FFF759FEE9E700E100E0DBE5B151C7
:1056200007B501A800F062F8019B1A88A52A07D0E7
:105630009888A0F1AA035842584103B05DF804FBD2
:105640000120FAE710B501F07FF9A8B10E4B0F4821
:1056500043F00103984701F0E1F808B102F0FAF9CC
:1056600001F072F908B102F0F5F901F01FF90446F2
:1056700038B102F0EFF904E001F03EF904460028E9
:10568000E4D1204610BD00BF00B60F0000A86100A5
:1056900000B589B003AB142200211846FEF73EFE88
:1056A00002228DF80C20002200920FC8FFF7A4FE02
:1056B000FFF71CFE002009B05DF804FB13B504469B
:1056C00001A800F013F8019B1A8822805A88628092
:1056D0009A68A2609A88A280DA68E2601A692261F8
:1056E0005A6962619B69A36102B010BD014B0360FE
:1056F000704700BF00F00F00F0B50346186880F354
:1057000008885868FF2464B2EFF30585002D01D1A5
:10571000A64600472546064621273FBAF0B4002496
:10572000002500260027F0B4F92040B2004700BF52
:10573000F0BD00BFFFF7E0BF73B500230DF102011C
:1057400001A8ADF80230019302F010FEF8B9019CF7
:1057500025785DB3174B93F83020032A28D00C2608
:1057600006FB00F29958E9B998189D5093F830203B
:105770000132D2B283F83020BDF802300E4A9B08C5
:10578000013B043443608460084602F0CBF8019B7F
:1057900033B128B1184602F005FE08B102F05AF9FB
:1057A00002B070BD01300428DAD1F0E70720EEE73F
:1057B0000420ECE7A498002001580F0011B108461E
:1057C00002F048B97047000010B50C230B4A434360
:1057D000D418D15881B192F83010A0680139C9B2FB
:1057E00082F830100021D150C4E90111043802F0D0
:1057F000D9FD08B102F02EF9002010BDA4980020B8
:10580000F8B5214B214E01221A7035460C2796F827
:10581000303003B9F8BD002407FB04F3EA5882B125
:10582000013AE818042A06D8DFE802F019050F0348
:10583000240000F0E7FEE0B2FFF7C6FF08B102F077
:1058400009F90134042CE7D1E1E72B449A685A6046
:1058500000F078FE0028EED002F0FCF8EBE700F054
:1058600063FF00F03FFF08B102F0F4F80520FFF7F6
:10587000E3FAE0E700F088FF00F0AAFF0620BDE8A9
:10588000F840FFF7D9BA00BF78980020A49800200C
:1058900008B50E4B002283F8302003F130011A6066
:1058A000C3E901220C338B42F9D1094800F044FED0
:1058B00002F0F4FC08B102F0CDF8064802F0DAFC80
:1058C00008B102F0C7F8002008BD00BFA49800206E
:1058D000BD570F0039570F0008B50020FFF774FFC0
:1058E0000120FFF771FF0220FFF76EFF0320FFF793
:1058F0006BFFBDE8084002F019BD006870476CDF1F
:1059000070476DDF70476EDF70476FDF704772DF83
:10591000704773DF704774DF704776DF704777DF5B
:1059200070477ADF70477CDF70477FDF704786DF24
:1059300070478FDF704790DF7047AFDF7047B0DF91
:105940007047B1DF7047B2DF7047B5DF704764DF83
:10595000704766DF70470C2813D8DFE800F0141298
:105960001212121209120712120D0B0002207047B8
:10597000032070470420704704290CBF052006202F
:105980007047062070470120704702F063B810B5D9
:10599000044608460321FFF7DEFF032102462046A6
:1059A00001F0C0F918B1BDE8104002F053B810BDC5
:1059B000032810B50B46144620D0042825D169B120
:1059C000124B18884FF6FF7398421ED01321FFF731
:1059D000A4FFD0B1BDE8104002F03CB8104602F080
:1059E000DDF808B102F036F8094B1B689C420CD177
:1059F00001220321074801F095F9EAE70121184641
:105A0000FFF7A9FF01210246F4E710BD4284002000
:105A10009899002048990020F8B50A4CA3889E1850
:105A20001D2E15460DDC2768FE1802F1010C07F843
:105A300003C07070B01C04F0C0FFA28802322A4478
:105A4000A280F8BDF8980020F0B54A4D2C7893B0AC
:105A5000002C40F08A80484E102221463046FEF746
:105A60005DFC464B3360182221460CA8FEF756FC1D
:105A700028230E93424B1B7801278DF8307006AE19
:105A8000002B74D021463F4C102202A8FEF746FCA2
:105A9000102202A9E01D04F081FF002867D03A48D7
:105AA00039460460FFF72FFF08B101F0D3FF374BF1
:105AB000374603F1100C186859683A4603C2083398
:105AC00063451746F7D12068A2880A903048A37929
:105AD000ADF82C20002101228DF82E300660FFF752
:105AE00014FF08B101F0B6FF03238DF844300423FE
:105AF0008DF8063041F23053ADF80830254B324670
:105B00009B798DF80A300DF1070102A8FFF71FFFFE
:105B1000012210460DF10601FFF77EFF1E4804F03A
:105B2000A0FF1D49C2B20920FFF776FF10223146BF
:105B30000620FFF771FF0CAA0F491848FFF7E7FE90
:105B400008B101F087FF154C042221780120FFF7EE
:105B5000E6FE08B101F07EFF01212078FFF7D9FEB3
:105B600008B101F077FF01232B7013B0F0BD0623BD
:105B7000BEE700BF7C990020F8980020D89800204C
:105B80004499002008990020949900200F99002042
:105B9000789900204899002006B60F004084002024
:105BA000F0B504460146B1B08E4801F0EFF8238805
:105BB000212B00F0048142D8112B00F09C8007D8E3
:105BC000012B00F0BE80102B00F08E8031B0F0BDB4
:105BD000142B00F0D4801A2B5BD0132BF6D1824B00
:105BE00003AC9A79186899888DF822200790DA1DFD
:105BF000ADF820101733264610685168254603C5B6
:105C000008329A422C46F7D1784B09AA03F11807BB
:105C1000154618685968144603C40833BB42224627
:105C2000F7D1186820607248724A008810AB85214D
:105C3000CDE91456FFF779FE0028C7D0B5E0512B07
:105C400000F085801ED8232B00F0B280262BBDD11A
:105C5000237A012BBAD1684B00221A70674B19685E
:105C600001391960002969D110AB14221846FEF7DA
:105C700055FB05228DF84020149A00920FC8FFF7BB
:105C8000BBFBA3E7552B00F0A380562B4CD0522B27
:105C90009CD1574B1C884FF6FF75AC4200F08480B6
:105CA000574B1B78002B79D00123082255492046F9
:105CB000FFF747FE002878D102460146022320461E
:105CC000FFF73FFE002870D12A460C212046FFF73F
:105CD00034FE43F2020398423FF478AF08283FF4C1
:105CE00075AF1128A8D171E7414BA2881A80424BA9
:105CF00000221A706AE730AA802322F89C3D3C4CAF
:105D00003E4B208832211960012310A9FFF71BFEAA
:105D100008B101F09FFE3C4B1B780BB9FFF794FED6
:105D20004FF6FF73238051E7A379002B7FF44EAF2A
:105D30002F4B13211888FFF7F0FD7DE7FFF784FE56
:105D400044E72B4B00211888FFF703FE74E7A37983
:105D5000002B3FF43BAFA27B043A022A3FF636AF5A
:105D6000022B18BF01238DF840304FF4C173ADF8FA
:105D700044301F4B10A91888FFF7E1FD5CE71A4A71
:105D8000258A518D02F1180000238D420CBF014677
:105D900019460732A088FFF7CAFD4DE71A46194693
:105DA0002046FFF7CEFD47E7082001F053FE0DE740
:105DB0000F4B002211461888FFF7BDFD3CE730A9C4
:105DC000002321F8803D0A4B1888FFF7B2FDFDE65D
:105DD000E188074BF72928BFF7211888FFF7B5FDA1
:105DE0002AE700BF48990020089900202099002048
:105DF000428400208A9900207C990020448400205D
:105E0000449900203C9900208F99002030B5434AE6
:105E1000434800231370434A95B0137000F08CFB85
:105E200001F07CFE0546002862D13F48FEF7FEFBEC
:105E3000002860D13D4B01221A7014AC112304F8E4
:105E40004C3D3B4804F00DFE394982B22046FFF735
:105E50006AFD08B101F0FEFD0822002104A8FEF74A
:105E60005DFA344A4FF0C87304A8CDE90423FFF764
:105E700058FD08B101F0EEFD00210C222046FEF78E
:105E80004DFA0823ADF804302B4B029321462B4BDF
:105E90002B48039300F094FD08B101F0DBFD294C81
:105EA0004022002104A8FEF739FA204604F0D9FD6B
:105EB0000594254CADF81000204604F0D2FD07945F
:105EC000224CADF81800204604F0CBFD1123ADF8AC
:105ED000300004A8ADF84C300D9401F071F81C4B63
:105EE00030221A7007225A7010229A70FFF7ACFD08
:105EF000284615B030BD04A8FFF703FD08B101F036
:105F0000A9FD9DF8113004A801338DF81130FFF779
:105F1000F6FC002891D001F09DFD8EE78F990020BE
:105F2000B1590F0089990020089900204499002058
:105F300006B60F0008001800A55F0F008B590F0070
:105F4000489900200DB60F0015B60F0021B60F00BE
:105F50008A99002010B50F4B01221A700E4B188839
:105F60004FF6FF73984207D01321FFF7D6FC08B114
:105F700001F070FD002010BD084C2278002AF9D0F5
:105F8000074B1878FFF7C7FC08B101F063FD002349
:105F90002370EFE78F990020428400207C99002035
:105FA00040840020F0B50B7889B005460C46092BDB
:105FB00023D8DFE813F02B00330042000A0018005A
:105FC0002400FD00060145000B0100F0DDFB04216B
:105FD000FFF7C1FC04210246284600F0A3FE60B191
:105FE00001F038FD09E0FFF7B5FF08B101F032FD1F
:105FF00000F0EEFB08B100F003FC09B0F0BDFFF7C4
:10600000A9FF0028F7D001F025FDF4E7724B01222B
:106010001A704B681A78714B1A70EEE76E4B0226B5
:106020001E704B681B78012BE7D100F05BFB3146FB
:10603000FFF791FC02463146CEE7674B0322EBE7C0
:106040000520FEF7F9FE644B1E78022E2AD0032E9F
:106050004ED0012ED1D104AB102218460021FEF7FC
:106060005DF95E4A237A12788DF81020002203929F
:106070000C2B4FF00302CDE90120DCD163681846F8
:10608000FFF73BFC0590181DFFF737FC069003F166
:106090000800FFF732FC079001A800F053FA00282F
:1060A000ABD0C4E7237A13F003010FD00022C1F173
:1060B0000401944698181646C0B2676801329142AE
:1060C00007F800C0F6D1013333442372012304934F
:1060D00063680693237A04A89B08059300F024FBC9
:1060E00000288AD00221FFF736FC0221024673E71E
:1060F000207A830702D0324631466DE7384E019050
:10610000314601F021FD014618B12846FFF73FFC5A
:1061100073E76168019A306804F04FFC019801F060
:106120007BFD01460028F0D101A9304601F084FD35
:1061300001460028E9D104230493019B9B080593A1
:1061400004A83368069300F05DFA074640B9254A73
:10615000237A11680B441360234B32681A604CE7B2
:1061600009281BD11F4B217A1A68114419601F4B53
:106170001B78002B3FF441AF1D4C2388013B9BB2A1
:106180002380002B7FF439AF284600F091FD08B141
:1061900001F060FC174B1B8823802EE7306801F06C
:1061A000FDFC014610B12846FFF7F1FB3946ACE78C
:1061B0000E4B01221A700F4A8B8813800C4A1380F1
:1061C0001BE70A4A002313700A4AF8E7054B1968CF
:1061D00000F032FD03E700BF89990020909900206C
:1061E0009C9900208099002098990020889900208F
:1061F000869900208499002018DF70470129F8B59E
:106200000D4614461F4607D0032912D014B320466A
:10621000BDE8F84001F01EBC0F4B1B78052BF5D1F3
:106220000E4B1B68002BF1D03A46214604209847BC
:10623000ECE7094E3378022BE8D1094B5B689847AD
:10624000064B35701E68002EE0D03A46214628469F
:10625000B047DBE7F8BD00BFA8990020A099002057
:10626000CC99002000B5084B89B001221A70052393
:106270008DF80C30079B009303AB0FCBFFF7BCF8F6
:1062800009B05DF804FB00BFA999002000B589B0F2
:1062900003238DF80C300A4B1B88ADF80E30094BE8
:1062A0005A6804929A68DB680693079B00930592EC
:1062B00003AB0FCBFFF7A0F8002009B05DF804FB9B
:1062C000D8990020249A002000B589B001238DF8C8
:1062D0000C300F4B1B88ADF80E3043F204031A68E4
:1062E0000C4B9A420ABF43F208034FF480521A68DB
:1062F000094B596804919968DB68069305910092EF
:1063000003AB0FCBFFF778F8002009B05DF804FB72
:10631000D8990020DBE5B151249A002000B589B05E
:1063200003AB142200211846FDF7F8FF04228DF874
:106330000C20002200920FC8FFF75EF809B05DF84C
:1063400004FB000030B589B003AC142200212046C4
:10635000FDF7E4FF094B1B88ADF80E30084BDB68F6
:1063600006930025079B8DF80C50009394E80F00CE
:10637000FFF742F8284609B030BD00BFD899002089
:10638000249A00201B4BF7B51B4C1C601B4B0222B0
:106390001A70FEF725FA1A4B48B11968204600F02A
:1063A00089FFB8B103B0BDE8F04001F053BB1B68F2
:1063B0001D0BC3F30B0303B10135124F002443F24D
:1063C0000406A54208D1002300931A4603210A4877
:1063D000FFF714FF03B0F0BD3368BB420ABF43F2BE
:1063E00008034FF48050186800EB0430FEF706FEF7
:1063F0000134E6E73C9A0020349A0020A899002056
:10640000DC990020DBE5B15110B50B4B1B788BB943
:106410000A4801F053FA08B101F01CFB00224FF4C6
:106420001601064801F006FA044608B101F012FB15
:10643000204610BD0824FBE7A9990020AC99002054
:106440007FB50C4603210546CDE900109608684645
:1064500002940396FFF7D0FED8B1B4F5805F11D84F
:1064600001236846CDE90035CDE90246FFF7C4FEB9
:1064700078B903236846CDE90035CDE90246FFF738
:10648000BBFE06E01A46E11AE81AFFF7D9FF00281A
:10649000E6D004B070BD00007FB504A81C4B40F8E6
:1064A0000C3D1C4B1C491D4E00241C701C4BCDE99F
:1064B00002441C8000F0DAFE054618B1347028460C
:1064C00004B070BD43F2040300211A68154B16484E
:1064D0009A4208BF43F208030F4A0CBF1B684FF4EF
:1064E00080535360114A01F093F908B101F0B2FAF8
:1064F00000224FF416010E4801F09CF908B101F09A
:10650000A9FA0C4B00221A6001233370D7E700BFB1
:10651000FD610F00209A0020349A0020A8990020E5
:10652000D8990020DBE5B15148B60F0065620F0035
:10653000AC990020A4990020014B1860704700BF5F
:10654000A099002070B54368244C0FCB84E80F005D
:106550002278510701D5930739D163689E0736D158
:10656000A1688D0733D1E068840730D10B441C4EFD
:106570000344B1F5204F33602BD843F2040108687F
:106580001849884209BF43F208014FF46C21096899
:10659000C1F56D218B421CD8134D144B2B60D107D4
:1065A000134B6B600ED5134BAB60134B1B78012B59
:1065B00011D1FFF729FF044610B92B6830689847BE
:1065C000204670BD93074CBF0C4B0D4BECE70624E7
:1065D000F6E70C24F4E70824F2E700BF249A002031
:1065E000DC990020DBE5B151CC99002085630F00D8
:1065F0001D630F00C9620F00A89900208D620F0073
:1066000045630F002DE9F3478046002858D0836882
:106610009B0757D12E4B1B78052B55D12D4F446826
:106620002D4E3B683268A40023449342B94607D9F3
:106630004FF0FF333B600C25284602B0BDE8F087E1
:10664000FFF7E2FE05460028F6D1D8F80880DFF80B
:1066500090A0FEF7C5F848B13B68DAF80000224682
:10666000414600F017FEE0B10546E5E743F20403BA
:10667000D9F800001A68194B9A420ABF43F208037E
:106680004FF480571F682246002341463844FEF7E6
:1066900055F80094434600220121DAF80000FFF784
:1066A000ADFDD9F800301C443368C9F800409C4265
:1066B0000CD1FEF795F80028BED1FEF721F8BBE714
:1066C0000E25B9E71025B7E70825B5E70925B3E793
:1066D000A8990020A4990020DC990020DBE5B151A5
:1066E0003C9A002070B50B4B1D6885B90A4E337873
:1066F000042B0CD1094C0A4B21781A780948FDF774
:10670000B5FF10B90523337070BD2570FCE7082074
:10671000FAE700BFA4990020A8990020209A002041
:10672000249A0020E0990020F8B5134B1A78032A28
:10673000074603D0042A03D0082419E004221A7063
:106740000E4B1B68002BF7D1FFF75EFE044678B9AD
:106750000B4E7D683378AD005A19402A0AD8094893
:10676000B9682A46184404F028F933781D44357076
:106770002046F8BD0924FBE7A8990020A499002031
:10678000209A0020E099002038B50D4C2378052B85
:1067900014D10C4B0C4D1A682B689A420ED106236B
:1067A0002370FFF731FE40B9084B29681B68586811
:1067B000FDF796FF08B90723237038BD0820FCE7D2
:1067C000A8990020A4990020DC9900203C9A002080
:1067D00010B5084B1B78072B0AD1074801F06EF85B
:1067E00008B101F037F9054BBDE810409B68184728
:1067F000082010BDA8990020AC990020CC99002059
:1068000000B589B006238DF80C30079B009303ABCD
:106810000FCBFEF7F1FD09B05DF804FB10B58CB0AD
:1068200005A8FEF74BFF089A002A3BD00B9C02F507
:106830008053A3422AD91C49A4F5805301EA53038B
:1068400043F2080109688A4208D85800121A00F574
:1068500080512044FFF7F4FD0CB010BD03F58050CB
:106860000121CDE90110CDE9030101A8FFF7C4FC26
:106870000028F1D14FF48050CDE9020001A8019128
:106880000491FFF7B9FC0028E6D1DEE70123CDE94A
:10689000013492084FF4805301A803930492FFF748
:1068A000ABFCD9E71046D7E700F0FFFF00B58DB08D
:1068B00005A8FEF703FF099890B1089B9BB943F226
:1068C00004031A680B4B9A4210D143F208031B6869
:1068D00080080022039001A8CDE90123FFF78CFC7A
:1068E0000DB05DF804FB0B9A1344F1E74FF48053AD
:1068F000EEE700BFDBE5B15100B58DB005A8FEF7AE
:10690000DDFE0998A8B1089BB3B943F204031A68E5
:106910000C4B9A4213D143F208031B68039380087F
:1069200003214FF47422049001A8CDE90112FFF76E
:1069300063FC0DB05DF804FB0B9A1344EEE74FF4D3
:106940008053EBE7DBE5B15130B58DB005A8FEF71C
:10695000B5FE0898A8B10B9C00F58053A34212D94C
:1069600043F208031B68984219D80E4BA4F58052D5
:1069700003EA52035D00421B05F580516019FFF7E1
:106980005FFD0DB030BD800803224FF480530490AA
:1069900001A8CDE901230394FFF72EFCF1E70E20B7
:1069A000EFE700BF00F0FFFFA8DF7047AADF7047E6
:1069B000ADDF7047AEDF7047B0DF704762DF704712
:1069C0002DE9F0470F4694B00546002800F02E81CF
:1069D000002900F02B814B68002B00F027814FF637
:1069E000FF730380924B04AA03F1100C164618683B
:1069F0005968144603C4083363452246F7D114ABE3
:106A000041F230520DF10A01304623F8482DFFF7CC
:106A1000D5FF0446002840F005812A1D19460120B3
:106A2000FFF7C2FF0446002840F0FC809DF80A30C2
:106A3000AB7101461C220DA8FDF770FC9DF83430A7
:106A40000E9443F004038DF8343001AEAB798DF829
:106A50000E30214641F2325303223046CDE9104434
:106A6000CDE91244ADF80C30FDF758FC9DF8043028
:106A700064F3030364F307138DF804309DF80530C5
:106A80004FF0010A6AF303036AF307138DF8053028
:106A90009DF806306AF3420364F3C30364F30413FE
:106AA000DBB243EA0A032146142208A88DF8063017
:106AB0000DF10C08FDF732FC4FF0140905F1080345
:106AC00008AA0DA9A8880A940C94CDE90886ADF807
:106AD0002C90FFF76BFF0446002840F0A38001468E
:106AE0001C220DA8FDF71AFC9DF834300E9443F0DB
:106AF00018038DF83430AB798DF80E30214641F211
:106B0000315303223046CDE91044CDE91244ADF8AB
:106B10000C30FDF703FC9DF8043064F3030364F3C9
:106B200007138DF804309DF805306AF303036AF308
:106B300007138DF805309DF806306AF3420364F3BD
:106B4000C303DBB243F0110321464A4608A88DF87F
:106B50000630FDF7E3FB1723ADF82C3008AA05F14A
:106B600010030DA9A8880A940C94CDE90886FFF7B4
:106B70001DFF0446002855D101461C220DA8FDF733
:106B8000CDFB9DF834300E9443F002038DF8343081
:106B9000AB798DF80E30214641F234530322304652
:106BA000CDE91044CDE91244ADF80C30FDF7B6FB49
:106BB0009DF804306AF303036AF307138DF8043079
:106BC0009DF8053064F3030364F307138DF8053073
:106BD0009DF806306AF3420364F3C30364F30413BD
:106BE000DBB243EA0A0321464A4608A88DF806307C
:106BF000FDF794FB02230A93ADF82C3008AA05F1A7
:106C000020030DA9A8880C97CDE90886FFF7CEFED2
:106C1000044638B97B68AB62BB6803B1EB62054BD5
:106C200001221A70204614B0BDE8F0870E24F9E75F
:106C30004CB60F00409A002070B5054686B070B380
:106C400002884FF6FF739A422BD0174B1B7843B341
:106C5000164C1022080AE170207121FA02F0090E88
:106C6000072301266071A17102A800216370ADF8AD
:106C700006302270A670FDF751FB2B8AADF8083064
:106C80000023ADF80C3002A90DF1060328888DF819
:106C90000A60CDE90434FFF78DFE06B070BD0E200A
:106CA000FBE70820F9E700BF409A0020419A002046
:106CB00030B5054687B060B302884FF6FF739A423D
:106CC00029D0164B1B7833B3154C112323700B0AB4
:106CD0006170A3700B0C090EE37021710523002174
:106CE000102202A8ADF80630FDF718FB2B8AADF88C
:106CF000083001238DF80A300023ADF80C3002A9CA
:106D00000DF106032888CDE90434FFF753FE07B0E0
:106D100030BD0E20FBE70820F9E700BF409A0020B5
:106D2000419A002030B5044687B038B300884FF64A
:106D3000FF73984224D0134B1B780BB3124D1023D2
:106D400069700321ADF80610AA7000211A4602A846
:106D50002B70FDF7E3FA238AADF8083001238DF894
:106D60000A300023ADF80C3002A90DF1060320888B
:106D7000CDE90435FFF71EFE07B030BD0E20FBE75E
:106D80000820F9E7409A0020419A002070B50D468E
:106D900088B0044640B139B1826A2AB10B88112B00
:106DA00059D003D8102B43D008B070BD502B42D01F
:106DB000512BF9D18B79022BF6D10A89038A9A4299
:106DC000F2D18B7B043B022BEED99DF8163043F0B9
:106DD00001038DF816300B8AADF818304B8AADF8E8
:106DE0001A30022601F114030822002101A807939A
:106DF0008DF81060FDF792FA01AAA18A2088019609
:106E0000CDF808D0FFF7D4FD034638B3E36A03B1E9
:106E1000984740F2FD1304A92088ADF81430FFF71D
:106E2000CBFD0028C0D0E36A002BBDD09847BBE75C
:106E30008B882380B8E7C98803899942B4D1082395
:106E40008DF81030123535F8023C8DF81830059564
:106E500004A99047A8E74FF6FF73EAE79DF80020E2
:106E60002088D207D5D504A9ADF81430FFF7A4FDCA
:106E70000028D8D1297D4B1E072B41D8DFE803F02D
:106E8000041A2327292B3E2D00238DF804306B8A0A
:106E9000012B05D8062201212046FFF743FFC0E75A
:106EA000012315358DF80C300295A36A01A92046FF
:106EB000984779E76A8A01239A428DF80430F0D81E
:106EC00006220221E8E702238DF80430EDE70323D0
:106ED000FAE70423F8E70523F6E76B8A022B02D8CA
:106EE00003220821D8E7AA7D6B7D43EA0223ADF88F
:106EF00008300BB90723E7E70623E5E70923E3E7B3
:106F00000322C9E7A8DF7047AADF70472DE9F043E5
:106F100081468FB0154698460E4611B9084600F0D6
:106F200099FD15B9284600F095FD1C220DEB0200D5
:106F30000021FDF7F3F99DF81C30ADF80490002412
:106F400043F0020301272146032268468DF81C30D6
:106F50000894CDE90A44CDE90C448DF80670FDF79C
:106F6000DDF998F800308DF8003098F801308DF890
:106F700001309DF8023067F3420303F0E70364F346
:106F800000032146142202A88DF80230FDF7C6F94D
:106F90000A48CDF80CD001AB029302AA169B0088D8
:106FA000ADF8105007A9ADF81240ADF81450069690
:106FB000FFF7AAFF0FB0BDE8F08300BF689A00207A
:106FC00030B587B006A941F60A03044621F80C3D06
:106FD0000120294A8DF80E00FFF794FF0546D8B925
:106FE0002288E2B922894AB1244B0093E16804F176
:106FF0003C0342F62420FFF789FFD8B9228C4AB11E
:107000001F4B0093616A04F13C0342F62620FFF710
:107010007DFF78B9A36B7BB9284607B030BD194B0B
:107020000093616804F13C0342F62920FFF76EFFEC
:107030000028D7D00546EFE71A788DF810205A8837
:107040008DF81120120A8DF812209A88DB888DF8AD
:1070500015301B0A8DF813208DF81630120A0A4BD2
:107060008DF814200093072204F13C0304A942F692
:107070005020FFF74BFFDDE7689A0020589A002068
:10708000489A0020509A0020609A002029DF70471B
:1070900028DF704737B50B460C465A6814F80C1BAE
:1070A000DD680092044A5B6952F82550024620468A
:1070B000A84703B030BD00BF6C9A002038B5184C0B
:1070C0002378182202FB03431A795D69012A03D051
:1070D000032A18D00F2015E0124A996910689A689F
:1070E000DB680003121AB2F5805F1D44014438BF0B
:1070F0009208284428BF4FF48062FFF7C7FF08B901
:107100000123A37038BD4FF080531869054B80B23E
:10711000B5FBF0F518682844FFF7BAFFEFE700BFAA
:107120007C9A0020749B002070B5134D6C780A2C5B
:107130001FD02E783444E4B2092C84BF0A3CE4B258
:10714000182606FB0454A261207103C9A360049BA6
:10715000E360AB7804F1100282E8030023B1002061
:107160006B7801336B7070BDFFF7A8FF1128F7D162
:10717000F5E70420F7E700BF7C9A0020F8B527491F
:107180008B780C462BB1002602288E7002D0032883
:107190003AD0F8BD0D78224A182101FB0541136849
:1071A00089680133B1EB033F13601BD86378166025
:1071B000013B63706B1CDBB218270426092B17FBFD
:1071C000056188BFA5F10903214400202370FFF762
:1071D00061FF07FB05430022C3E904621A719A604C
:1071E0009A61DA606378002BD3D0A378002BD0D1DA
:1071F000FFF764FF0028CCD01128CAD021781823CB
:1072000003FB0141043105E00B78182202FB031156
:1072100004310D20BDE8F840FFF73CBF7C9A002008
:10722000749B00200D4A002313600D4A0420138034
:10723000937002F1F001137193609361D360C2E91E
:10724000040318328A42F6D1064A1360064A002027
:10725000C2E90033C2E90233704700BF749B0020CB
:107260007C9A0020709B00206C9A0020074A1368CB
:10727000042B1FBF0B60591C1160054A1DBF01681C
:1072800042F8231000201846704700BF709B002072
:107290006C9A002013B5CC180C43A40708D10093B6
:1072A00013460A4601460120FFF73EFF02B010BD1B
:1072B0001020FBE707B500220B4600920146032091
:1072C000FFF732FF03B05DF804FB0000094A537872
:1072D00091780133DBB2994208BF002311789942BB
:1072E0001FBF03705078182303FB002014BF043025
:1072F00000207047789B0020082910B5044602D072
:10730000002000F0A7FBD4E90030BDE8104018478A
:1073100073B5054602A8002400F8014D0E4600F0A2
:10732000A7FB0DF10600FFF7D1FF90B106700A4BE5
:107330009DF8062045605A709DF8070000F0BCFBE0
:1073400024B9064B4FF48012C3F80021204602B046
:1073500070BD0424F0E700BF789B002000E100E04E
:10736000204B21491A682F2300BF00BF00BF00BF78
:1073700000BF00BF00BF00BF8A422FD000BF00BFC8
:1073800000BF00BF00BF00BF00BF00BF00BF00BF05
:1073900000BF00BF00BF00BF00BF00BF00BF00BFF5
:1073A00000BF00BF00BF00BF00BF00BF00BF00BFE5
:1073B00000BF00BF00BF00BF00BF00BF00BF00BFD5
:1073C00000BF00BF00BF00BF00BF00BF00BF00BFC5
:1073D00000BF00BF00BF00BF00BF00BF013BC3D163
:1073E000704700BF3C8400200024F4000C4B0D4883
:1073F0004FF4003210B5C3F8802001244FF48033DD
:10740000C0F84833C0F808334460FFF7A9FF064BC3
:10741000846000201860FFF7A3FF044B187010BDB4
:1074200000E100E000100140949C0020859C0020B9
:107430002DE9F3412549264B0025C1F84051C1F8FB
:107440004451C1F84851C1F84C51C1F80051C1F83C
:1074500004511B68002B34D0D1F804451D49DFF8D6
:1074600088800968641A24F07F442F461A68A24273
:1074700012D8A41A15441A7CDE6962B15A691F74C5
:1074800000929B69019342460821684600F04AFA3F
:1074900008B100F0DFFABEB90F4B104A1978137823
:1074A0008B4205D10133DBB2022B08BF00231370DE
:1074B00012780B4B43F822500A4B4FF48012C3F85A
:1074C000002102B0BDE8F0813346CFE70010014053
:1074D000989C0020949C0020909C0020919C00206F
:1074E000889C002000E100E0F9720F002DE9F74FC1
:1074F000A44AA54913780978A44C99423BD001339A
:10750000DBB2022B08BF00231370A1491278A14BF4
:107510000F6853F822003B1823F07F4300220B60D2
:10752000236815461646944613B942B1236006E017
:10753000196881420DD902B12360091A1960012727
:107540002368DFF8589201930026BDB9DFF858A2EE
:1075500063E0401A0E44D968C3F800C0D3F81CE0B9
:1075600031B1BA1922F07F42C3E90121DD611D4624
:1075700001227346D8E700252F46E1E72846ED694A
:10758000834A43681268DFF824E2D0F808C0991AE9
:1075900021F07F41714500F2A98061440160012220
:1075A000027422680023C0E90133C361002A40F05D
:1075B000A7802060C9E75A1C9AF80210D4F800B0DE
:1075C000D2B291428AF8002004BF00228AF800203B
:1075D000182202FB03A31A799868022A73D0032A9F
:1075E00000F08180012A18D1017CB1B9DA684260CB
:1075F0001A6982605A69C2609B698361664B1B7815
:10760000002BBDD04160BBE7984200F09E809846B9
:10761000DB69002BF8D1002303749AF800309AF844
:1076200001209A42C7D1236826B9019A934201D119
:10763000002F42D0002B00F08580D3F80090574CEB
:10764000534BD4F804651868554F351A3B7825F02C
:107650007F4503359BB94FF48033C4F84433C4F8F5
:107660000433504B4FF400324FF00108C3F880212F
:107670001A60C4F80080FFF773FE87F80080A94500
:107680002CBF4844401920F07F40C4F84005D4F88E
:1076900004359B1B23F07F43801B033320F07F4086
:1076A00083420AD9D4F80435C4F84035FFF758FEB0
:1076B0003C4B4FF40032C3F80021374B00221A70C4
:1076C00003B0BDE8F08F5B46D846A2E78BF81020E8
:1076D000DBF81CB00123BBF1000FF7D1002B9CD0CD
:1076E000C4F800B099E700231A46F4E7D31A23F050
:1076F0007F43634534BFACEB0303002303604EE7D5
:107700000168136899421BD8591A1160C26150E789
:10771000A1EB0C01D3F81CC01A46BCF1000F0AD033
:107720006346D3F800C08C45F2D3ACEB010CC3F830
:1077300000C09C4613460160C0F81CC0D86104E735
:107740001346EEE7FFF752FEB7E740450CD1DBF8F2
:107750001C30236043B90E490122C9F808200B6090
:107760000D4B1A70FFF7FCFDC2690368C8F81C20B6
:1077700012B111680B44136023689B4518BF0126A2
:1077800049E700BF909C0020919C0020989C00201D
:10779000949C0020889C0020849C002000100140C4
:1077A000859C002000E100E0789B0020FEFF7F0028
:1077B00008B5FFF71BFE104B00200B2218809A70B3
:1077C0000E4B18600E4B18700E4B18700E4B4FF48A
:1077D0008012E021C3F8802183F814131A6002F1AB
:1077E0008042A2F56F22C2F8080583F81113074BF7
:1077F000D2F804251A6008BD789B0020989C0020D0
:10780000909C0020919C002000E100E0949C0020CE
:10781000074B9B784BB132B128B10368187C20B973
:1078200059745A617047072070470820704700BF9D
:10783000789B00202DE9F7431D4FBB7805460E4687
:1078400090469BB390B304292ED9436973B3437C0C
:1078500002A80024012B00F8014D0CBF8946A14667
:1078600000F006F90DF10600FFF730FDD0B101235D
:107870000370104B4560D3F80435C0E90498C0E9A3
:1078800002369DF806307B709DF8070000F014F971
:1078900024B9094B4FF48012C3F80021204603B0ED
:1078A000BDE8F0830424EFE70724F7E70824F5E7B1
:1078B000789B00200010014000E100E0064A927829
:1078C0003AB130B1426922B1002202740221FFF7BD
:1078D0001FBD0820704700BF789B002012F00303F3
:1078E00010B511D1094C22604C1CE400A4B2224412
:1078F000074C2260074A1370074A1370074A10802A
:10790000074A1846118010BD0720FCE7A49C002000
:10791000A09C00209C9C0020AC9C0020A89C0020E7
:10792000AA9C00202DE9F3472B4D2B888B4206465D
:107930000C4617464BD302A84FF0000800F8018D03
:1079400000F096F8254B264A18781178CBB22549D5
:1079500009888B4238BF0133C0B238BF5FFA83F861
:1079600040452ED092F800801378DBB2994286BF52
:107970000133DBB2002313709DF8070000F09CF880
:107980004FF6FF73984524D0DFF860A0DAF8003096
:107990004FEAC80903EB090243F83870A6B19CB15D
:1079A000114B28881B68224608FB0030314603F043
:1079B00004F8DAF800304B4400209C8002B0BDE8A7
:1079C000F0874FF6FF78D7E700209080F6E7092090
:1079D000F4E70420F2E700BFA89C0020AC9C002044
:1079E0009C9C0020AA9C0020A09C0020A49C00201D
:1079F000F8B5124C124D264622782B789A4200D1C7
:107A0000F8BD23780F48104A078812680F48DBB288
:107A100019B202EBC10C006852F83120BCF8041016
:107A200003FB070090470A4A23781288DBB29A4288
:107A300086BF0133DBB200233370DDE7AC9C00204E
:107A40009C9C0020A89C0020A49C0020A09C0020BE
:107A5000AA9C00201FB50021CDE9021001AA44F222
:107A60000100ADF80410FCF7B1FE05B05DF804FBB1
:107A700070B5EFF3108672B60C4A946801239CB976
:107A800093600B4B0B4DD3F8801029401160C3F865
:107A90008050D3F8841051604FF0FF32C3F8842037
:107AA000047006B962B670BD0370FAE74CCD0020D1
:107AB00000E100E0FC06FFBD10B5084B9A685AB122
:107AC00050B9EFF3108172B6054A1C6814605C6807
:107AD0005460986001B962B610BD00BF4CCD002063
:107AE00000E100E02AB113880144884204D118461D
:107AF00070474FF6FF73F7E75BBA10F8012B9BB2A4
:107B00005A40C2F30313534083EA03331BB25A01B2
:107B100002F4FF5253409BB2E7E70000064B074ACE
:107B200000201870064B1A600822C3E90120C3E93F
:107B30000300C3E905007047AD9C0020B09C002005
:107B400090AF00200020704730B5F9B1124B5C684F
:107B500000220A60E4B1B0F5167F1BD8D8681D6812
:107B60000130013CD86018695C604FF4177404FB65
:107B700000540C60012101FA00F49969013000F011
:107B80000700214318619961104630BD0E20FCE7C3
:107B90000420FAE70C20F8E790AF0020F0B51D4B69
:107BA0009A68A2B359691E688D1A05F007052C461C
:107BB0004FF4177707FB046C604512D1012101FADD
:107BC00004F0996941409961002021465E68D3F82C
:107BD00018C04FF0010E71440024164401F0070153
:107BE0000AE0013404F00704A142E3D11020EDE7DC
:107BF0004AB1013A0D4601240EFA05F515EA0C0FBB
:107C0000A6EB0207F4D00CB1C3E90172F0BD042069
:107C1000FCE700BF90AF0020064A13691268013BE1
:107C20004FF4177103F0070301FB0323C3F8580255
:107C30000020704790AF002030B5C0B1B9B10E4BF5
:107C4000DA68B2B1013ADA609A681D6801329A6066
:107C50005A694FF4177404FB025404600132D4F8DB
:107C60005802086002F007025A61002030BD0E2061
:107C7000FCE70420FAE700BF90AF00203FB40C49B6
:107C8000086890B10B4B1C687CB10B4A1568CDE9B4
:107C9000025000238DF804300B60136004AB13E92D
:107CA0000700234604B030BC184704B030BC70470E
:107CB000B4AF0020B8AF0020C4AF0020DC2810B55E
:107CC00009D0DD2810D0C02816D1FFF7D7FF0E4B02
:107CD0000E4A1A6010BD0E4A0E4B19681368581CE4
:107CE0001060C022CA54F2E7094A0A4B19681368A7
:107CF000581C1060DB22F5E7064B054A196813682B
:107D00005C1C1460C854E2E7488400202D7D0F00FD
:107D1000B4AF0020C4AF0020C02802BF014B024A0C
:107D20001A607047488400202D7D0F00C02810B4D1
:107D300009D0DB280BD0094B094A196813685C1C71
:107D40001460C85406E05DF8044BFFF797BF054B7D
:107D5000054A1A605DF8044B704700BFC4AF0020AD
:107D6000B4AF002048840020BD7C0F0007B502A9F5
:107D7000012201F8010D002002F0C8F800280CBF14
:107D80000420002003B05DF804FB000010B5064A93
:107D9000064C12682368D05CFFF7E8FF10B923682F
:107DA0000133236010BD00BFC8AF0020BCAF00206E
:107DB00008B5C020FFF7DAFF28B9034B1B6813B9D9
:107DC000024B034A1A6008BDBCAF00204C8400205F
:107DD0008D7D0F0008B5DB20FFF7C8FF10B9024BFF
:107DE000024A1A6008BD00BF4C840020F17D0F00DC
:107DF00010B50C4A0C4C12682368D35CC02B03D01E
:107E0000DB2B0CD0042009E0DC20FFF7AFFF28B902
:107E10002368064A01332360054B1A6010BDDD203C
:107E2000F3E700BFC8AF0020BCAF00208D7D0F007E
:107E30004C8400207FB5164C164D174E002002F0E2
:107E400047F818B322689AB12968336899420FD26B
:107E5000012201A9002002F045F810B94FF0FF30CF
:107E600001E09DF804000D4BC0B21B689847E5E7A0
:107E70000B4B1B6853B10292064A0221126803920F
:107E80008DF8041004AA12E90700984704B070BDE9
:107E9000C4AF0020B4AF0020B0AF00204884002061
:107EA000B8AF0020014B186000207047B8AF002029
:107EB000034B1A780AB901221A700020704700BFDC
:107EC000ACAF0020014B002018707047ACAF002011
:107ED0002DE9F04F85B000284FD0294F3B78012B7A
:107EE00007D0022B0CBF04250825284605B0BDE8A5
:107EF000F08F244C244A254E254DDFF8A0A0DFF852
:107F0000A0B011600023236002233B70214B30603E
:107F10002B60914698462268D9F800309A4215D3D2
:107F2000C5F80080FFF744FF054608BB1A4B1B68E5
:107F300001223A70E3B18DF804203268029222687F
:107F4000039204AA12E907009847CEE73368226833
:107F50009A5CC02A03D022689B5CDB2B04D12B687F
:107F6000534508BFC5F800B02B689847042801D1D5
:107F70000025BAE71128CED1FAE71025B5E700BFF2
:107F8000ACAF0020BCAF0020C0AF0020C8AF0020C5
:107F90004C840020B17D0F00B8AF00208D7D0F0014
:107FA000D57D0F00054B064A1860064B1960064B3D
:107FB00000201860054B1A60704700BFC4AF002056
:107FC000197D0F00B0AF0020B4AF0020488400201E
:107FD000064B07481B68DB00DBB20022037004215C
:107FE0005B4242708270C370FFF772BFF4AF002033
:107FF000CCAF002070B52D4C2D4E0246254623787F
:10800000012B14D002D3022B20D070BD002AFCD14A
:108010002848FFF753FC08B1FFF71CFD264B1B68EF
:10802000002BF2D0254ABDE8704010781847012A8D
:10803000EBD13168224B06311868FFF749FF08B1D0
:10804000FFF708FD02232B700022D8E7022A19D07F
:10805000032A0ED0002AD8D11A4B16481A6041F6CE
:108060007F21FFF7E7FB0028CFD0BDE87040FFF786
:10807000F1BC154A1368013303F0070313600023B2
:108080002370E1E70F4A1368052B0AD00133136010
:10809000074B19680A4B06311868BDE87040FFF7B6
:1080A00017BF064B01221A70E9E700BF18B0002085
:1080B0000CB00020D0AF002008B0002010B000208D
:1080C00020B0002014B00020F8AF0020F0B585B03B
:1080D00004AB03E907009DF80400032878D8DFE823
:1080E00000F00802A7AA012005B0BDE8F040FFF7A4
:1080F00081BF039E564C032E40F28680029D6B7812
:1081000013F00F0269D00E2A7ED1042E59D02A789E
:10811000500656D5110654D51A44AB781A44EB785C
:108120001A4412F0FF024CD1B71E39462846FFF719
:10813000D9FCEB195A78EB5D43EA0223984240D10F
:1081400044492A780B6802F00702D8B282422BD148
:10815000013303F007030B60FFF73AFF3E4B0122A8
:1081600030461A70FFF758FD08B1FFF773FC384925
:108170004FF41670FFF7E8FC00285ED0042802D008
:108180000020FFF767FC35480521FFF70BFF08B11A
:10819000FFF760FC324B1B68002B56D04FF00000FD
:1081A00005B0BDE8F04018474FF416712068FFF79E
:1081B000F9FE08B1FFF74EFC05B0BDE8F040FFF74F
:1081C00007BF20684FF41671FFF7ECFE00283CD083
:1081D00005B0BDE8F040FFF73DBC2978AA780B4414
:1081E0001344EA78134413F0FF030DD11D4A1268BB
:1081F0000132C1F3C20102F00702914204D11A4ACE
:1082000003201370FFF7F6FE25681DB14FF41671B9
:108210002846D9E70E494FF41670FFF795FC80B158
:10822000042802D02846FFF715FC0C480521CBE7AF
:1082300005210A48C8E70320CAE720684FF41671F1
:10824000A3E720684FF41671BEE705B0F0BD00BF8C
:108250001CB00020F4AF0020F0AF0020FCAF0020E5
:1082600004B00020F8AF002010B000200220FFF77B
:10827000C1BE0000074B10B5044618600648FFF762
:1082800011FE08B1FFF7E6FB002C0CBF0E2000200A
:1082900010BD00BF04B00020CD800F00184A19485F
:1082A000002310B51360184A1360184A1360184A67
:1082B0001370184A1370184B184A01211960184B93
:1082C0001960184B1970FFF7A3FA08B1032010BD0D
:1082D000FFF724FC0028FAD1FFF7EAFD0028F6D1C9
:1082E000114C4FF416702146FFF72EFC0028EDD1FB
:1082F00020684FF41671BDE81040FFF753BE00BF71
:1083000020B000205CB60F000CB0002014B000209C
:10831000F0AF002018B00020F4AF00206D820F00F5
:10832000F8AF002010B000201CB000200C4A08B5A7
:10833000002313600B4A1360FFF704FC08B1FFF73A
:1083400089FBFFF7BFFD08B1FFF784FB0648FFF785
:10835000B5FA042802D10020FFF77CFB002008BDFD
:1083600008B0002004B00020D0AF002037B50D4683
:10837000044698B191B10A4B19780022019259B183
:1083800001A91A70FFF758FC019B063B2B8023685C
:108390000433236003B030BD0420FBE70E20F9E76F
:1083A000F0AF00200438FFF7F9BB18DF704700007A
:1083B000F0B5164C87B020680F466168164603AAD0
:1083C00003C213491D460868237A4968137001AA3D
:1083D000104B009303C203A802F043FB03A902461B
:1083E000384602F0EAFA01A802F03BFB01A9024676
:1083F000304602F0E2FA684602F033FB6946024674
:10840000284602F0DAFA07B0F0BD00BF60B60F00F0
:1084100069B60F00312E30000120704710B51C46A0
:108420000B781E2B0AD000232022052101F094FF97
:108430004FF6FF70A04228BF204610BD0020F9E78C
:10844000F8B5069E14460D463246002118461F46D2
:10845000FBF764FF6CB10A4B1B68DB0700D500BE5D
:108460004FF0FF300AE0284600F0A4F9013504F58A
:108470000074B44207EB0401F5D32046F8BD00BFF9
:10848000F0ED00E0F8B50A4E0D461F460024069BAD
:108490009C4207EB040101D32046F8BD3246284632
:1084A00000F05AFA0028F7D0013504F50074EEE721
:1084B00024B0002030B5284C227A8DB09AB107AC98
:1084C000142200212046FBF729FF06250B9B8DF87F
:1084D0001C50009394E80F00FCF78EFF0620FCF779
:1084E000ABFC0DB030BD2368002BFAD01B4B1978C4
:1084F00019B105201A70FCF79FFCD4E900329A42AA
:10850000EFD307AD142200212846FBF707FF637A5B
:10851000F3B106234FF420424FF474214FF423208B
:108520008DF81C3002F03AFA68B11022002103A83D
:10853000FBF7F4FE4FF423224FF4205303A8CDE9B8
:108540000423FFF732FF0B9B009395E80F00C3E76E
:108550008DF81C30F7E700BF24B0002050840020C5
:10856000024B0B604FF40073138070470901010048
:10857000012070474DDF70474EDF70474FDF704777
:1085800050DF704712DF7047002000F06DBC000024
:108590001FB5244B402283F8272300238DF8073092
:1085A00043F2040304461A681F4B9A4203D10DF1AB
:1085B0000700FFF7E7FF9DF8073003B30120FFF73F
:1085C000DBFF0120FFF7D6FF0120FFF7D7FF02A84E
:1085D000FFF7D6FF029BDA0702D5002000F076FDF8
:1085E000029B9B0702D5022000F070FD204600F0A0
:1085F0003DF800F083F802F097F904B010BD04A82C
:1086000000F80C3DFCF764FC04A8084B40F8043D5E
:10861000FCF786FCFCF78EFC4FF08043D3F838342F
:108620000293D7E700E100E0DBE5B151CD900F0008
:10863000012000F04BBD0120FCF7FEBB0220FCF73F
:10864000FBBB00000048704751840020044B054AE2
:108650001878054B002814BF10461846704700BF15
:1086600040B20020D5B60F0073B60F00074B18704C
:1086700020B1074B64229A720022DA724FF08053C5
:1086800004495A6E04481B6E02F0BCB940B2002087
:10869000518400202BB70F00C4B2002038B570B948
:1086A000134B14481968022202F087F90120431C79
:1086B000114A5B0043F440731380104638BD05280F
:1086C00014D80B4B53F82040204602F0CAF9C0B230
:1086D0001F28094928BF1F200023DAB29042E6D99B
:1086E00001EB4302E55C55800133F6E70020E5E746
:1086F0006484002044B2002042B20020F7B51F4934
:108700001F481F4F02F09EF943F204031A681D4BE5
:108710009A422DD14FF440531B78102B25D943F2A8
:108720001002142B156821D943F214031C68144855
:1087300002F097F94FF47A721349B4FBF2F602FB98
:108740001646B4FBF1F3019601FB13413844B1FB2B
:10875000F2F12A4600910D4902F054F90C490848FB
:1087600003B0BDE8F04002F06DB900250024DEE75B
:108770000849384602F066F9F0E700BF10B80F006C
:108780007C840020DBE5B15140420F001DB80F0092
:1087900044B80F0038B80F0030B5002320259342AD
:1087A00000DB30BD0C781CB1C45401310133F6E755
:1087B000C554FBE72DE9F0410C4605464FF4007225
:1087C00000212046FBF7AAFD65B93E225B49204601
:1087D00002F0F3F8552384F8FE31AA2384F8FF3120
:1087E000BDE8F081B5F5017F2DD86B1EB3F5817F13
:1087F00024BF6FF4817805EB0803CBB11B026FF047
:10880000010203F5807002FB034440F6C3251A1FE2
:10881000B2F52C6F03F1010206D2AB4214BF91B244
:108820004FF6FF7124F8131082421346EFD1D7E7B9
:10883000F822227004F109012246FF2002F8010FFC
:108840008A42FBD1DAE7B5F5027F3BD86FF4017CB1
:1088500065443DB920460B223949FFF79DFF282387
:10886000E3722034374B2E01002703EB05254FF030
:108870002E08022EB4D80B2229462046FFF78CFF83
:1088800050236FF025026FF044016374E374637644
:10889000B31C677384F80E80E1732274A274277589
:1088A000677584F81680E17522766383E86830B1D5
:1088B00002F0D7F8E061013620341035D9E74FF4E3
:1088C000AC10F7E7204B9D428AD86FF40277EA1983
:1088D000012A0DD81B4B03EB0213DD68284602F07A
:1088E000C0F8294602462046BDE8F04102F065B8CE
:1088F0006FF4FD76A9190902B1F5801FBFF470AFBE
:10890000124B236003F1144303F52C1303F60233D7
:1089100063600F4BC4F8FC314FF42C63A3614FF438
:108920000053A5F20B254FF48072A360094B6561DB
:10893000E1602261E36104F12000D5E736B70F0062
:1089400061B70F00E0B70F00080101005546320A79
:10895000306FB10A4028A5ADF7B5644B14460A68DC
:108960009A420D4626D103F114434A6803F52C13AD
:1089700003F602339A421DD1D1F8FC215C4B9A4296
:1089800018D18B6823F4FF5323F01E039B049B0C28
:10899000B3F5005F0ED10A69B2F5807F0AD1C868CD
:1089A00010F0FF0F06D1CB6952498B4205D0524AD5
:1089B000934217D04FF0FF3012E0A0F58053B3F58B
:1089C0002C2F05D2012305F12001FBF7B7FE02E0B1
:1089D000B0F5805FEED2AB69002B56D14FF400703A
:1089E00003B0F0BD01266672EB68B3F1102F18D109
:1089F000042205F13401684601F0DFFF042205F18D
:108A000038010DEB020001F0D8FF009BB3F5742F85
:108A100003D1019BB3F57E2F01D02672CAE7A6725F
:108A2000D9E7A3F57422B2F5204F28D2E67A05F1F2
:108A3000200716B9314A934207D2E8682A69012310
:108A40003946A0F5A220C0E708362B69B342F4D915
:108A50000422B919684601F0B0FF009BD02BF3D176
:108A60000422311D0DEB0200394401F0A6FF244B16
:108A7000019A9A424FF0010305D1E372DDE7B3F5A5
:108A8000805FA8D30123237294E72268934207D022
:108A900041F263018B4200D80AB14FF0FF332360EB
:108AA0006B6941F26302934298D803F0070104EB2B
:108AB000D30301228A40197BD2B2114204D16068EB
:108AC0000A4301301A736060D4E900329A4285D3B8
:108AD0000120FBF715FE637A002B3FF47FAFA37AEA
:108AE000002B7FF47BAF0123237277E75546320AD0
:108AF000306FB10A4028A5AD3C8263D600D80F0084
:108B000063009A23064B1868082802D104331B68B7
:108B100023B9A0F10D035842584170470120704716
:108B20003001001042DF704743DF704744DF704779
:108B300012DF7047064B93F8C0202AB9054B1B681B
:108B4000DB0704D500BE7047002283F8C0207047C1
:108B5000D8B20020F0ED00E007B543F204031A6834
:108B6000094B9A424FF000030CD102A800F8013DD6
:108B7000FFF7DEFF9DF80700003018BF012003B0AB
:108B80005DF804FB1846FAE7DBE5B15107B5FFF7DE
:108B9000E3FF48B101A8FFF7C9FF0198003018BFF3
:108BA000012003B05DF804FB4FF08043D3F80C04C0
:108BB00000F00110A0F1011358425841F1E7000004
:108BC0000D4B93F8C020014662B10C4A5268C2F3C3
:108BD00008021AB101220A4800F02ABD93F8C02009
:108BE000002AFBD1012283F8C0200A60BFF36F8FF7
:108BF000BFF34F8F704700BFD8B2002000ED00E0F8
:108C0000C18B0F00F8B50F490F4E00F5947318256E
:108C100051F823404543142303FB00137259C3F852
:108C20000027E4B2C3F80447084B03EB8000FFF7CA
:108C3000C7FF7359771923447351FB881C44A4B2AE
:108C4000FC80F8BD00700240D8B2002028700240BD
:108C500010B4104B182101FB00314A8A0B8ACC68F2
:108C60009B1A0A7D9BB2934228BF134614224243AB
:108C700002F1804202F51C32C2F80046C2F8043606
:108C80002344CB60044B5DF8044B03EB8000FFF7FB
:108C900097BF00BFD8B2002004700240024B0122EF
:108CA000C3F80425704700BF007002407047000001
:108CB000014B80225A60704700E100E0024B8022A5
:108CC000C3F88420704700BF00E100E0074BD3F8F1
:108CD0000014D3F800240A43C3F800240022C3F888
:108CE00058214FF48002C3F80423704700700240FB
:108CF00010B58878097900F07F0318240C22C00988
:108D00005C4302FB0044114A22441172012202FA20
:108D100003F40F4978B90C3302FA03F3C1F80433B2
:108D2000D1F814352343C1F81435BFF36F8FBFF367
:108D30004F8F012010BD023302FA03F3C1F8043350
:108D4000D1F810352343C1F81035EEE7D8B2002032
:108D500000700240F7B51E4601F07F001823CD09D0
:108D60001E4C0F4603FB00F10C2303FB0513E11817
:108D7000E25000238E80CB80B0B9AEB9184BD3F847
:108D80008034C3F3C0139D420ED01648FFF718FF7E
:108D9000FFF7D0FE0096334632463946304600F0A3
:108DA000FBFB012003B0F0BDADB9182303FB004469
:108DB000637A13B1FFF726FFF3E7094B30B90122BD
:108DC000DA64BFF36F8FBFF34F8FEAE700F594705B
:108DD00043F82050F5E7FFF73BFFE2E7D8B2002069
:108DE000007002405070024011F07F0F064B0BBF25
:108DF000012241F480715A65C3F81815BFF36F8FD3
:108E0000BFF34F8F704700BF007002404B060AD07F
:108E1000054BC3F8181541F48071C3F80C15BFF366
:108E20006F8FBFF34F8F70470070024010B5002264
:108E30001146930003F1804303F51C330132082AE5
:108E400059609962F5D1064B064C5962C422996467
:108E500020460021FBF762FA40232375237210BDE0
:108E600000700240D8B200202DE9FF47924B934E8C
:108E7000D3F8000300231C4601251F4605FA03F121
:108E800008420CD09A199200D2F800C0BCF1000F31
:108E900005D00C431760BFF36F8FBFF34F8F0133C3
:108EA000192BEBD1E10706D5FFF7C0FF01221146D0
:108EB000002000F045FBA20204D50122032100207E
:108EC00000F03EFB630217D57B4ED6F8005405F444
:108ED0004073EF05C6F8003407D5012204210020B5
:108EE00000F02EFB0123C6F82C35AD0504D5012278
:108EF0000521002000F024FB714B23400BB1FFF74C
:108F000019FE20022BD56C4BD3F88014C9B28DF812
:108F10000810D3F88424D2B28DF80920D3F888043D
:108F20008DF80A00D3F88C048DF80B00D3F8900468
:108F30008DF80C00D3F894048DF80D00D3F8980444
:108F40008DF80E00D3F89C348DF80F30490601D10E
:108F5000052A04D0012202A9002000F004FB564E8D
:108F6000584F0C254FF0010C0CFA05F3A5F10C023B
:108F70002342D1B224D0142303FB02634FF0000E2E
:108F8000D3F80807182303FB027803FB0573A3F546
:108F90008C7988F809E099F80090C0B28145A3F572
:108FA0008E736ED1B8F80600B3F80080804568D99A
:108FB000002961D1C6F84CC0BFF36F8FBFF34F8F4C
:108FC0000135142DCED1404B2340002B51D03A4BCC
